:100000000C942A000C9447000C9447000C94470071
:100010000C9447000C9447000C9447000C94470044
:100020000C9447000C9447000C9447000C94470034
:100030000C9447000C9447000C9447000C94470024
:100040000C9447000C9447000C9447000C94470014
:100050000C94470011241FBECFE5D4E0DEBFCDBF16
:1000600010E0A0E6B0E0EEE5FEE302C005900D92E0
:10007000AC37B107D9F710E0ACE7B0E001C01D9292
:10008000A73BB107E1F70E94521E0C942D1F0C9460
:100090000000EF92FF920F93DF93CF93CDB7DEB7BF
:1000A00060970FB6F894DEBF0FBECDBFA82F002318
:1000B00009F461C07E010894E11CF11C88E0F7019D
:1000C00011928A95E9F729833A834B835C836D8388
:1000D0007E83AF83988780E2801BE82FFF27E7FDB0
:1000E000F0954D815E816F817885181684F01D86AC
:1000F0001E861F86188A882799278E1B9F0B04C08F
:1001000076956795579547958A95D2F728C0202F01
:10011000332727FD3095DB01CA01022E04C0B695B6
:10012000A795979587950A94D2F78D879E87AF8775
:10013000B88B04C0440F551F661F771FEA95D2F78E
:1001400089819A81AB81BC8104C0B695A7959795AA
:1001500087952A95D2F7482B592B6A2B7B2B4987F9
:100160005A876B877C8729853A854B855C856D85A9
:100170007E85AF8598898A2F60960FB6F894DEBF8A
:100180000FBECDBFCF91DF910F91FF90EF900895FB
:10019000EF92FF920F93DF93CF93CDB7DEB76097C7
:1001A0000FB6F894DEBF0FBECDBFA82F002309F411
:1001B00061C07E010894E11CF11C88E0F7011192F6
:1001C0008A95E9F729833A834B835C836D837E8329
:1001D000AF83988780E2801BE82FFF27E7FDF0952B
:1001E00049815A816B817C81181684F019861A86A0
:1001F0001B861C86882799278E1B9F0B04C0440FE3
:10020000551F661F771F8A95D2F728C0202F3327E6
:1002100027FD3095DB01CA01022E04C0880F991F0B
:10022000AA1FBB1F0A94D2F789879A87AB87BC871E
:1002300004C07695679557954795EA95D2F78D81D5
:100240009E81AF81B88504C0880F991FAA1FBB1F6C
:100250002A95D2F7482B592B6A2B7B2B4D875E872B
:100260006F87788B29853A854B855C856D857E8582
:10027000AF8598898A2F60960FB6F894DEBF0FBEBF
:10028000CDBFCF91DF910F91FF90EF900895A0E146
:10029000B0E0EDE4F1E00C94B71EA8E04E01089444
:1002A000811C911CF401BA2F1192BA95E9F72983A8
:1002B0003A834B835C836D837E838F839887CE01E3
:1002C0000996FC011192AA95E9F7A986BA86CB8610
:1002D000DC86ED86FE860F87188B2D813E814F814F
:1002E00058858D859E85AF85B889281739074A07B7
:1002F0005B07C8F082179307A407B507B0F0298100
:100300003A814B815C8189859A85AB85BC852817AC
:1003100039074A075B0738F082179307A407B50728
:1003200020F081E003C080E001C082E06096ECE054
:100330000C94D31EEF92FF920F931F937B018C01BD
:1003400020E030E040E05FE40E949A0488238CF0D3
:10035000C801B70120E030E040E05FE40E941203F2
:100360000E94FA049B01AC012050304040405048AC
:1003700006C0C801B7010E94FA049B01AC01B90193
:10038000CA011F910F91FF90EF900895A0E0B0E097
:10039000ECECF1E00C94B11EDC012B01FA019C9114
:1003A000923008F439C1EB018881823008F433C1FE
:1003B000943069F4843009F02FC111969C91119703
:1003C0008981981709F428C1A0E6B0E025C18430DE
:1003D00009F421C18230A9F4923009F01DC19A01BB
:1003E000AD0188E0EA010990AE01E90109929E01A0
:1003F0008150C1F7E201898111969C918923818303
:1004000008C1923009F407C112962D903C901397C1
:10041000EB018A819B811496AD90BD90CD90DC90CC
:100420001797EC80FD800E811F819101281B390BED
:10043000B90137FF04C066277727621B730B603250
:1004400071050CF061C0121613066CF537014801F6
:10045000062E04C096948794779467940A94D2F7F2
:1004600021E030E040E050E004C0220F331F441F81
:10047000551F6A95D2F721503040404050402E2100
:100480003F2140235123211531054105510521F01C
:1004900021E030E040E050E079018A01E628F728C9
:1004A000082919293CC0232BD1F1260E371E35010E
:1004B0004601062E04C096948794779467940A9414
:1004C000D2F721E030E040E050E004C0220F331FBB
:1004D000441F551F6A95D2F721503040404050408C
:1004E0002A213B214C215D21211531054105510572
:1004F00021F021E030E040E050E059016A01A628F7
:10050000B728C828D9280BC0821593052CF01C01E8
:10051000AA24BB24650103C0EE24FF2487011196A1
:100520009C91D20111968C91981709F445C099239A
:1005300039F0A80197012A193B094C095D0906C049
:10054000A60195012E193F09400B510B57FD08C01C
:1005500011823382228224833583468357831DC0D0
:1005600081E081833382228288279927DC01821BE4
:10057000930BA40BB50B84839583A683B7830DC01F
:10058000220F331F441F551F24833583468357830F
:10059000828193810197938382832481358146816F
:1005A0005781DA01C9010197A109B1098F5F9F4FF6
:1005B000AF4FBF4328F30BC0918333822282EA0CF2
:1005C000FB1C0C1D1D1DE482F5820683178383E04E
:1005D0008083248135814681578157FF1AC0C90124
:1005E000AA2797FDA095BA2F81709070A070B07067
:1005F0005695479537952795822B932BA42BB52B92
:1006000084839583A683B7838281938101969383A4
:100610008283DF0101C0D201CD01CDB7DEB7E2E1B7
:100620000C94CD1EA0E2B0E0E8E1F3E00C94BD1E16
:1006300069837A838B839C832D833E834F83588782
:10064000E9E0EE2EF12CEC0EFD1ECE010196B70175
:100650000E9423068E010F5E1F4FCE010596B80142
:100660000E9423068A8991E089278A8BC701B801F5
:10067000AE01475E5F4F0E94C6010E944E05A096E4
:10068000E6E00C94D91EA0E2B0E0E9E4F3E00C94BB
:10069000BD1E69837A838B839C832D833E834F8326
:1006A0005887F9E0EF2EF12CEC0EFD1ECE010196DD
:1006B000B7010E9423068E010F5E1F4FCE010596E3
:1006C000B8010E942306C701B801AE01475E5F4F23
:1006D0000E94C6010E944E05A096E6E00C94D91E29
:1006E000A0E2B0E0E6E7F3E00C94B11E69837A8300
:1006F0008B839C832D833E834F835887CE01019645
:10070000BE01675F7F4F0E942306CE010596BE01A2
:100710006F5E7F4F0E9423069985923088F0898909
:100720008230C8F0943019F4823051F404C084301F
:1007300029F4923081F480E690E0C6C0923049F40A
:1007400020E09A858A89981321E02A87CE010996AC
:10075000BBC0823049F420E09A858A89981321E051
:100760002A8BCE014196B0C02D843E844F84588898
:100770006D887E888F88988CEE24FF248701AA24B8
:10078000BB24650140E050E060E070E0E0E0F0E0B4
:10079000C10181709070892BE9F0E60CF71C081DEF
:1007A000191D9A01AB012A0D3B1D4C1D5D1D80E0FA
:1007B00090E0A0E0B0E0E614F7040805190520F485
:1007C00081E090E0A0E0B0E0BA01A901480F591F14
:1007D0006A1F7B1FAA0CBB1CCC1CDD1C97FE08C02B
:1007E00081E090E0A0E0B0E0A82AB92ACA2ADB2A7A
:1007F0003196E032F10549F0660C771C881C991C93
:100800005694479437942794C3CFFA85EA892B8965
:100810003C898B859C85280F391F2E5F3F4F17C061
:10082000CA0181709070892B61F016950795F79435
:10083000E79480E090E0A0E0B0E8E82AF92A0A2BEB
:100840001B2B76956795579547952F5F3F4F77FD03
:10085000E7CF0CC0440F551F661F771F17FD41607F
:10086000EE0CFF1C001F111F21503040403090E063
:10087000590790E0690790E4790760F32B8F3C8F6C
:10088000DB01CA018F779070A070B0708034910541
:10089000A105B10561F447FD0AC0E114F1040105A9
:1008A000110529F0405C5F4F6F4F7F4F40781A8EE3
:1008B000FE1711F081E08A8F4D8F5E8F6F8F78A3C6
:1008C00083E0898FCE0149960E944E05A096E2E111
:1008D0000C94CD1EA8E1B0E0E0E7F4E00C94BD1E5E
:1008E00069837A838B839C832D833E834F835887D0
:1008F00089E0E82EF12CEC0EFD1ECE010196B70129
:100900000E9423068E010F5E1F4FCE010596B8018F
:100910000E9423068985823040F08989823028F040
:10092000C701B8010E949B0601C08FEF6896E6E000
:100930000C94D91EA8E1B0E0E0EAF4E00C94BD1EEE
:1009400069837A838B839C832D833E834F8358876F
:1009500089E0E82EF12CEC0EFD1ECE010196B701C8
:100960000E9423068E010F5E1F4FCE010596B8012F
:100970000E9423068985823040F08989823028F0E0
:10098000C701B8010E949B0601C08FEF6896E6E0A0
:100990000C94D91EA8E1B0E0E0EDF4E00C94BD1E8B
:1009A00069837A838B839C832D833E834F8358870F
:1009B00089E0E82EF12CEC0EFD1ECE010196B70168
:1009C0000E9423068E010F5E1F4FCE010596B801CF
:1009D0000E9423068985823040F08989823028F080
:1009E000C701B8010E949B0601C081E06896E6E05D
:1009F0000C94D91EACE0B0E0E0E0F5E00C94C11E30
:100A000069837A838B839C83CE010196BE016B5FE1
:100A10007F4F0E9423068D81823061F1823050F138
:100A2000843021F48E81882351F12EC02F813885A6
:100A300037FD20C06E812F3131051CF06623F9F09F
:100A400023C08EE190E0821B930B29853A854B856C
:100A50005C8504C056954795379527958A95D2F7BA
:100A60006623B1F050954095309521953F4F4F4FFB
:100A70005F4F0EC020E030E040E050E009C02FEFB3
:100A80003FEF4FEF5FE704C020E030E040E050E888
:100A9000B901CA012C96E2E00C94DD1EDF92EF92C0
:100AA000FF920F931F93FC01E480F580068117816C
:100AB000D1808081823048F480E090E0A0E1B0E015
:100AC000E82AF92A0A2B1B2BA5C0843009F49FC001
:100AD000823021F4EE24FF24870105C0E114F104E3
:100AE0000105110519F4E0E0F0E096C06281738120
:100AF0009FEF623879070CF05BC022E83FEF261BBE
:100B0000370B2A3131052CF020E030E040E050E096
:100B10002AC0B801A701022E04C0769567955795A3
:100B200047950A94D2F781E090E0A0E0B0E004C0DD
:100B3000880F991FAA1FBB1F2A95D2F70197A109F9
:100B4000B1098E219F21A023B1230097A105B105F2
:100B500021F081E090E0A0E0B0E09A01AB01282B09
:100B6000392B4A2B5B2BDA01C9018F779070A0706B
:100B7000B07080349105A105B10539F427FF09C093
:100B8000205C3F4F4F4F5F4F04C0215C3F4F4F4FA2
:100B90005F4FE0E0F0E02030A0E03A07A0E04A0735
:100BA000A0E45A0710F0E1E0F0E079018A0127C0E3
:100BB0006038710564F5FB01E158FF4FD801C701AA
:100BC0008F779070A070B07080349105A105B10549
:100BD00039F4E7FE0DC080E490E0A0E0B0E004C08E
:100BE0008FE390E0A0E0B0E0E80EF91E0A1F1B1FA3
:100BF00017FF05C016950795F794E794319687E09F
:100C000016950795F794E7948A95D1F705C0EE24D9
:100C1000FF248701EFEFF0E06E2F67956627679559
:100C2000902F9F77D794DD24D7948E2F8695492FC8
:100C3000462B582F5D29B701CA011F910F91FF90D4
:100C4000EF90DF900895FC01DB014081518122810A
:100C5000622F6F7770E0221F2227221F9381892F36
:100C6000880F822B282F30E0991F9927991F119602
:100C70009C93119721153105A9F541155105610581
:100C8000710511F482E037C082E89FEF13969C93C0
:100C90008E9312979A01AB0167E0220F331F441F16
:100CA000551F6A95D1F783E08C930DC0220F331F37
:100CB000441F551F12968D919C911397019713967F
:100CC0009C938E931297203080E0380780E048078D
:100CD00080E4580758F314962D933D934D935C93FD
:100CE000179708952F3F310579F441155105610596
:100CF000710519F484E08C93089564FF03C081E0CA
:100D00008C9312C01C9210C02F57304013963C9306
:100D10002E93129783E08C9387E0440F551F661F34
:100D2000771F8A95D1F7706414964D935D936D93F8
:100D30007C93179708951F93DC01FB019C919230DF
:100D400008F447C08081823008F443C0943051F4E5
:100D500011961C91843099F58181682F70E0611B98
:100D600071093FC0843021F0923031F48230B9F102
:100D70008181882389F12DC011961C9111978230B1
:100D8000F1F081811817D9F412962D913C911397A7
:100D9000828193818217930794F028173907BCF05A
:100DA00014968D919D910D90BC91A02D248135813B
:100DB00046815781281739074A075B0718F4112322
:100DC00041F00AC082179307A407B50740F4112326
:100DD00019F061E070E005C06FEF7FEF02C060E0E6
:100DE00070E0CB011F9108958F929F92AF92BF92B6
:100DF000CF92DF92EF92FF920F931F93DF93CF93E7
:100E0000CDB7DEB7C455D0400FB6F894DEBF0FBEE5
:100E1000CDBFFE01ED5BFF4F2083318342835383BF
:100E20006483758386839783FE01E55BFF4F11839F
:100E300000838CE38A831982ECC18A81A82FB0E0F9
:100E4000FE01ED5BFF4F208131814281538164813E
:100E50007581868197810A2F0E944900A22EB32EA8
:100E6000C42ED52EE62EF72E082F192F2A2D3B2D16
:100E70004C2D5D2D6E2D7F2D802F912FE22FEF7049
:100E80002E96EFAF2E97E32FE0702F96EFAF2F97B0
:100E9000E42FE0706096EFAF6097E52FE070619609
:100EA000EFAF6197E62FE0706296EFAF6297E72FA2
:100EB000E0706396EFAF6397E82FE0706496EFAF52
:100EC0006497E92FE0706596EFAF65972E968FAD2A
:100ED0002E978C3021F52F96EFAD2F97EE23F9F456
:100EE00060968FAD60978823D1F46196EFAD6197DE
:100EF000EE23A9F462968FAD6297882381F46396FE
:100F0000EFAD6397EE2359F464968FAD6497882311
:100F100031F46596EFAD6597EE2309F41AC12E966C
:100F20002FAD2E972F963FAD2F9760964FAD6097C0
:100F300061965FAD619762966FAD629763967FAD84
:100F4000639764968FAD649765969FAD65970F2EF6
:100F5000FCE0AF2EF02DBB24CC24DD24EE24FF24B6
:100F600000E010E00E944701823008F05AC02E963F
:100F70008FAD2E978A3021F52F96EFAD2F97EE2368
:100F8000F9F460968FAD60978823D1F46196EFAD48
:100F90006197EE23A9F462968FAD6297882381F45E
:100FA0006396EFAD6397EE2359F464968FAD649723
:100FB000882331F46596EFAD6597EE2309F4B3C04D
:100FC0002E968FAD2E978B3009F0EFC02F96EFAD98
:100FD0002F97EE2309F0E9C060968FAD60978823C4
:100FE00009F0E3C06196EFAD6197EE2309F0DDC033
:100FF00062968FAD6297882309F0D7C06396EFADF4
:101000006397EE2309F0D1C064968FAD649788236F
:1010100009F0CBC06596EFAD6597EE2309F0C5C02A
:101020008DC02E968FAD2E978E3021F52F96EFAD79
:101030002F97EE23F9F460968FAD60978823D1F453
:101040006196EFAD6197EE23A9F462968FAD62973A
:10105000882381F46396EFAD6397EE2359F4649689
:101060008FAD6497882331F46596EFAD6597EE23D5
:1010700009F485C02E962FAD2E972F963FAD2F9752
:1010800060964FAD609761965FAD619762966FAD68
:10109000629763967FAD639764968FAD649765960C
:1010A0009FAD65970F2EFEE0AF2EF02DBB24CC2414
:1010B000DD24EE24FF2400E010E00E94470181308F
:1010C00008F452C02E968FAD2E978F3009F06DC068
:1010D0002F96EFAD2F97EE2309F067C060968FAD86
:1010E0006097882309F061C06196EFAD6197EE23A8
:1010F00009F05BC062968FAD6297882309F055C0F6
:101100006396EFAD6397EE2309F04FC064968FAD01
:101110006497882309F049C06596EFAD6597EE2383
:1011200009F043C037C08981282F30E0CE010396F3
:10113000FC01E20FF31F81E4808365C08981282FC1
:1011400030E0CE010396FC01E20FF31F82E48083BE
:101150005AC08981282F30E0CE010396FC01E20FAE
:10116000F31F83E480834FC08981282F30E0CE01B4
:101170000396FC01E20FF31F84E4808344C089815D
:10118000282F30E0CE010396FC01E20FF31F85E427
:10119000808339C08981282F30E0CE010396FC017D
:1011A000E20FF31F86E480832EC08981882E992464
:1011B0008A81A82FB0E0FE01ED5BFF4F20813181D5
:1011C0004281538164817581868197810A2F0E94B3
:1011D0004900A22EB32EC42ED52EE62EF72E082FB0
:1011E000192F2A2D3B2D4C2D5D2D6E2D7F2D802FFF
:1011F000912F822F8F70282F2063CE010396FC0140
:10120000E80DF91D20838A8184508A8389818F5F4C
:1012100089838981803108F410CE19821A8203C033
:1012200089818F5F89838981282F30E0CE010396E1
:10123000FC01E20FF31F8081803391F31BC08A8190
:10124000282F30E0FE01E55BFF4F80819181DC01BA
:10125000A20FB31F8981282F30E0CE010396FC0135
:10126000E20FF31F80818C9389818F5F89838A814C
:101270008F5F8A838981803110F38A81282F30E043
:10128000FE01E55BFF4F80819181FC01E20FF31FBE
:101290001082CC5ADF4F0FB6F894DEBF0FBECDBF21
:1012A000CF91DF911F910F91FF90EF90DF90CF9042
:1012B000BF90AF909F908F900895DF93CF93CDB75D
:1012C000DEB7AFE4B0E0EFE4F0E0808188608C93BB
:1012D000AFE4B0E0EFE4F0E0808184608C93AFE4B1
:1012E000B0E0EFE4F0E080818E7F8C93AFE4B0E07B
:1012F000EFE4F0E080818D7F8C93AEE4B0E0EEE42B
:10130000F0E08081877F8C93AEE4B0E0EEE4F0E023
:1013100080818F7E8C93A9E5B0E0E9E5F0E08081E3
:101320008B7F8C9380E090E00E949909CF91DF91B0
:101330000895DF93CF9300D0CDB7DEB79A8389832A
:10134000ECE4F0E089819A81918380830F900F9083
:10135000CF91DF910895DF93CF93CDB7DEB7AEE4A1
:10136000B0E0EEE4F0E08081887F8C93CF91DF9154
:101370000895DF93CF93CDB7DEB7AEE4B0E0EEE4EF
:10138000F0E08081982F987F80916800892B8C9362
:10139000CF91DF910895DF93CF93CDB7DEB70E9451
:1013A000B909E8E5F0E08081882F90E084709070C2
:1013B0000097B9F3A8E5B0E0E8E5F0E0808184604B
:1013C0008C930E94AB09CF91DF910895DF93CF9367
:1013D0000F92CDB7DEB7198257C08981282F30E030
:1013E000C901880F991F820F931FFC01E659FF4F17
:1013F00080818830E9F48981282F30E0C901880F85
:10140000991F820F931FFC01E759FF4F408189818B
:10141000282F30E0C901880F991F820F931FFC010C
:10142000E559FF4F9081842F692F0E94540E29C0E7
:101430008981282F30E0C901880F991F820F931FDF
:10144000FC01E759FF4F50818981282F30E0C90105
:10145000880F991F820F931FFC01E659FF4F4081AF
:101460008981282F30E0C901880F991F820F931FAF
:10147000FC01E559FF4F9081852F642F492F0E9471
:101480004C0A89818F5F89838981882309F4A5CFDC
:101490000F90CF91DF910895DF93CF9300D000D0CC
:1014A0000F92CDB7DEB789836A834B8389818430FD
:1014B00008F0D8C18A81883008F0D4C18981282FEA
:1014C00030E03D832C838C819D818130910509F42E
:1014D00084C02C813D81223031052CF48C819D818A
:1014E000009771F0BFC12C813D812230310509F494
:1014F000E1C08C819D818330910509F448C1B2C15E
:101500008B81882341F5AAE3B0E0EAE3F0E0808133
:10151000482F8A81282F30E081E090E002C0880FB8
:10152000991F2A95E2F7809584238C93ABE3B0E072
:10153000EBE3F0E08081482F8A81282F30E081E0C2
:1015400090E0022E02C0880F991F0A94E2F780955E
:1015500084238C9387C18B81813039F5AAE3B0E075
:10156000EAE3F0E08081482F8A81282F30E081E093
:1015700090E002C0880F991F2A95E2F78095842396
:101580008C93ABE3B0E0EBE3F0E08081482F8A81FD
:10159000282F30E081E090E0022E02C0880F991FD2
:1015A0000A94E2F7842B8C935DC18B81823009F021
:1015B00059C1AAE3B0E0EAE3F0E08081482F8A81D4
:1015C000282F30E081E090E0022E02C0880F991FA2
:1015D0000A94E2F7842B8C9345C18B81882341F5D3
:1015E000A7E3B0E0E7E3F0E08081482F8A81282F6D
:1015F00030E081E090E002C0880F991F2A95E2F761
:10160000809584238C93A8E3B0E0E8E3F0E0808148
:10161000482F8A81282F30E081E090E0022E02C01E
:10162000880F991F0A94E2F7809584238C931AC13E
:101630008B81813039F5A7E3B0E0E7E3F0E080810A
:10164000482F8A81282F30E081E090E002C0880F87
:10165000991F2A95E2F7809584238C93A8E3B0E044
:10166000E8E3F0E08081482F8A81282F30E081E094
:1016700090E0022E02C0880F991F0A94E2F7842B93
:101680008C93F0C08B81823009F0ECC0A7E3B0E00E
:10169000E7E3F0E08081482F8A81282F30E081E065
:1016A00090E0022E02C0880F991F0A94E2F7842B63
:1016B0008C93D8C08B81882341F5A4E3B0E0E4E3A8
:1016C000F0E08081482F8A81282F30E081E090E08F
:1016D00002C0880F991F2A95E2F7809584238C9386
:1016E000A5E3B0E0E5E3F0E08081482F8A81282F70
:1016F00030E081E090E0022E02C0880F991F0A942A
:10170000E2F7809584238C93ADC08B81813039F5CD
:10171000A4E3B0E0E4E3F0E08081482F8A81282F41
:1017200030E081E090E002C0880F991F2A95E2F72F
:10173000809584238C93A5E3B0E0E5E3F0E080811D
:10174000482F8A81282F30E081E090E0022E02C0ED
:10175000880F991F0A94E2F7842B8C9383C08B81A6
:10176000823009F07FC0A4E3B0E0E4E3F0E08081E0
:10177000482F8A81282F30E081E090E0022E02C0BD
:10178000880F991F0A94E2F7842B8C936BC08B818E
:10179000882341F5A1E3B0E0E1E3F0E08081482F48
:1017A0008A81282F30E081E090E002C0880F991FE5
:1017B0002A95E2F7809584238C93A2E3B0E0E2E3DC
:1017C000F0E08081482F8A81282F30E081E090E08E
:1017D000022E02C0880F991F0A94E2F78095842395
:1017E0008C9340C08B81813039F5A1E3B0E0E1E317
:1017F000F0E08081482F8A81282F30E081E090E05E
:1018000002C0880F991F2A95E2F7809584238C9354
:10181000A2E3B0E0E2E3F0E08081482F8A81282F44
:1018200030E081E090E0022E02C0880F991F0A94F8
:10183000E2F7842B8C9316C08B81823099F4A1E35C
:10184000B0E0E1E3F0E08081482F8A81282F30E08A
:1018500081E090E0022E02C0880F991F0A94E2F7FF
:10186000842B8C930F900F900F900F900F90CF912F
:10187000DF910895DF93CF9300D000D00F92CDB7C2
:10188000DEB78A836B8319828A81843008F084C032
:101890008B81883008F080C08A81282F30E03D831A
:1018A0002C834C815D814130510579F18C819D8182
:1018B0008230910534F42C813D812115310569F088
:1018C0006BC04C815D8142305105B9F18C819D81A5
:1018D0008330910509F449C05FC0E9E3F0E08081FD
:1018E000282F30E08B81882F90E0A90102C0559508
:1018F00047958A95E2F7CA0181709070882319F0A4
:1019000081E0898349C0198247C0E6E3F0E0808125
:10191000282F30E08B81882F90E0A90102C05595D7
:1019200047958A95E2F7CA0181709070882319F073
:1019300081E0898331C019822FC0E3E3F0E0808128
:10194000282F30E08B81882F90E0A90102C05595A7
:1019500047958A95E2F7CA0181709070882319F043
:1019600081E0898319C0198217C0E0E3F0E080812B
:10197000282F30E08B81882F90E0A90102C0559577
:1019800047958A95E2F7CA0181709070882319F013
:1019900081E0898301C0198289810F900F900F9097
:1019A0000F900F90CF91DF910895DF93CF9300D0E8
:1019B00000D00F92CDB7DEB789836A834B838981CC
:1019C000843008F0E4C08A81883008F0E0C0898162
:1019D000282F30E03D832C838C819D8181309105BF
:1019E00009F447C02C813D81223031052CF48C81D3
:1019F0009D81009771F0CBC02C813D812230310553
:101A000009F467C08C819D818330910509F491C0F0
:101A1000BEC08B818130A1F4ABE3B0E0EBE3F0E03A
:101A20008081482F8A81282F30E081E090E0022ECB
:101A300002C0880F991F0A94E2F7842B8C93A7C0E9
:101A40008B81882309F0A3C0ABE3B0E0EBE3F0E0C7
:101A50008081482F8A81282F30E081E090E0022E9B
:101A600002C0880F991F0A94E2F7809584238C9313
:101A70008EC08B818130A1F4A8E3B0E0E8E3F0E010
:101A80008081482F8A81282F30E081E090E0022E6B
:101A900002C0880F991F0A94E2F7842B8C9377C0B9
:101AA0008B81882309F073C0A8E3B0E0E8E3F0E09D
:101AB0008081482F8A81282F30E081E090E0022E3B
:101AC00002C0880F991F0A94E2F7809584238C93B3
:101AD0005EC08B818130A1F4A5E3B0E0E5E3F0E0E6
:101AE0008081482F8A81282F30E081E090E0022E0B
:101AF00002C0880F991F0A94E2F7842B8C9347C089
:101B00008B81882309F043C0A5E3B0E0E5E3F0E072
:101B10008081482F8A81282F30E081E090E0022EDA
:101B200002C0880F991F0A94E2F7809584238C9352
:101B30002EC08B818130A1F4A2E3B0E0E2E3F0E0BB
:101B40008081482F8A81282F30E081E090E0022EAA
:101B500002C0880F991F0A94E2F7842B8C9317C058
:101B60008B818823A1F4A2E3B0E0E2E3F0E080817E
:101B7000482F8A81282F30E081E090E0022E02C0B9
:101B8000880F991F0A94E2F7809584238C930F9015
:101B90000F900F900F900F90CF91DF910895DF93EA
:101BA000CF9300D000D0CDB7DEB789836A83898117
:101BB000843008F072C08A81883008F06EC0898154
:101BC000282F30E03C832B838B819C8181309105D1
:101BD00049F12B813C81223031052CF48B819C8191
:101BE000009761F05AC02B813C812230310571F1A0
:101BF0008B819C8183309105E9F14FC0ABE3B0E06C
:101C0000EBE3F0E08081482F8A81282F30E081E0EB
:101C100090E0022E02C0880F991F0A94E2F78427F1
:101C20008C933BC0A8E3B0E0E8E3F0E08081482F6C
:101C30008A81282F30E081E090E0022E02C0880FD8
:101C4000991F0A94E2F784278C9327C0A5E3B0E09C
:101C5000E5E3F0E08081482F8A81282F30E081E0A1
:101C600090E0022E02C0880F991F0A94E2F78427A1
:101C70008C9313C0A2E3B0E0E2E3F0E08081482F50
:101C80008A81282F30E081E090E0022E02C0880F88
:101C9000991F0A94E2F784278C930F900F900F906E
:101CA0000F90CF91DF910895DF93CF9300D000D0B4
:101CB000CDB7DEB789836A838981843008F096C006
:101CC0008981282F30E03C832B838B819C8181305C
:101CD0009105A9F12B813C81223031052CF48B81B7
:101CE0009C81009771F082C02B813C8122303105AC
:101CF00009F443C08B819C818330910509F45AC05B
:101D000075C08A81882339F4EAE3F0E01082EBE3BE
:101D1000F0E010826BC08A81813041F4EAE3F0E0A8
:101D20001082EBE3F0E08FEF808360C08A818F3F09
:101D300009F05CC0EAE3F0E08FEF808357C08A814E
:101D4000882339F4E7E3F0E01082E8E3F0E0108262
:101D50004DC08A81813041F4E7E3F0E01082E8E38E
:101D6000F0E08FEF808342C08A818F3F09F03EC050
:101D7000E7E3F0E08FEF808339C08A81882339F46C
:101D8000E4E3F0E01082E5E3F0E010822FC08A8106
:101D9000813041F4E4E3F0E01082E5E3F0E08FEF1E
:101DA000808324C08A818F3F09F5E4E3F0E08FEF60
:101DB00080831CC08A81882339F4E1E3F0E010823B
:101DC000E2E3F0E0108212C08A81813041F4E1E365
:101DD000F0E01082E2E3F0E08FEF808307C08A81B9
:101DE0008F3F21F4E1E3F0E08FEF80830F900F90BD
:101DF0000F900F90CF91DF910895DF93CF9300D094
:101E000000D0CDB7DEB78A8319828A81843090F5FD
:101E10008A81282F30E03C832B838B819C81813009
:101E20009105D1F02B813C81223031052CF48B813E
:101E30009C81009761F01EC02B813C8122303105CE
:101E400081F08B819C818330910581F013C0E9E39F
:101E5000F0E0808189830EC0E6E3F0E08081898331
:101E600009C0E3E3F0E08081898304C0E0E3F0E0AF
:101E70008081898389810F900F900F900F90CF916F
:101E8000DF910895DF93CF9300D000D0CDB7DEB7B8
:101E900089836A838981843090F58981282F30E095
:101EA0003C832B838B819C8181309105D1F02B81E8
:101EB0003C81223031052CF48B819C81009761F0AC
:101EC0001EC02B813C812230310581F08B819C81A9
:101ED0008330910581F013C0EBE3F0E08A818083C9
:101EE0000EC0E8E3F0E08A81808309C0E5E3F0E01A
:101EF0008A81808304C0E2E3F0E08A8180830F90CE
:101F00000F900F900F90CF91DF910895DF93CF93B3
:101F100000D00F92CDB7DEB789838981843008F075
:101F20003EC08981282F30E03B832A838A819B81B0
:101F300081309105E9F02A813B81223031052CF472
:101F40008A819B81009761F02AC02A813B812230DF
:101F50003105B1F08A819B8183309105C9F01FC0A2
:101F6000ABE3B0E0EBE3F0E0808180958C9317C0A9
:101F7000A8E3B0E0E8E3F0E0808180958C930FC0A7
:101F8000A5E3B0E0E5E3F0E0808180958C9307C0A5
:101F9000A2E3B0E0E2E3F0E0808180958C930F90C3
:101FA0000F900F90CF91DF910895DF93CF93CDB72E
:101FB000DEB782E060E042E00E944C0A82E061E02D
:101FC00042E00E944C0A82E062E042E00E944C0A39
:101FD00082E064E042E00E944C0A82E065E042E078
:101FE0000E944C0A82E066E042E00E944C0A82E0D5
:101FF00067E042E00E944C0A82E00E940B1088E2F7
:102000000E940B108EE00E940B1081E00E940B10CA
:10201000CF91DF9108950F931F93DF93CF93CDB7A7
:10202000DEB7C456D0400FB6F894DEBF0FBECDBFAA
:10203000FE01EC59FF4F808382E060E040E00E94A7
:10204000D50C82E061E040E00E94D50CFE01E15A2F
:10205000FF4F80E090E0A0E8BFE380839183A283FC
:10206000B3838E01055A1F4FFE01E15AFF4F608175
:1020700071818281938120E030E04AE755E40E943B
:102080007003DC01CB01F80180839183A283B383C9
:10209000FE01E55AFF4F608171818281938120E0CA
:1020A00030E040E85FE30E94CA04882344F4FE0164
:1020B000E75AFF4F81E090E09183808364C0FE0186
:1020C000E55AFF4F608171818281938120E03FEF6B
:1020D0004FE757E40E946A0418160CF043C0FE0153
:1020E000E15AFF4F608171818281938120E030E06D
:1020F00040E251E40E947003DC01CB018E01075ADB
:102100001F4FBC01CD010E949A01DC01CB01F801F7
:10211000918380831FC0FE01E95AFF4F80E991E05F
:1021200091838083FE01E95AFF4F8081918101975D
:10213000F1F7FE01E95AFF4F91838083DE01A75A30
:10214000BF4FFE01E75AFF4F8081918101971196A1
:102150009C938E93FE01E75AFF4F808191810097F7
:10216000D1F627C08E01075A1F4FFE01E55AFF4FD7
:1021700060817181828193810E949A01DC01CB018F
:10218000F80191838083DE01AB5ABF4FFE01E75A0D
:10219000FF4F808191818D939C93FE01EB5AFF4FFD
:1021A000808191810197F1F7FE01EB5AFF4F9183F6
:1021B000808382E062E041E00E94D50CFE01EF5A8C
:1021C000FF4F80E090E0A0E8BFE380839183A2838B
:1021D000B3838E01035B1F4FFE01EF5AFF4F6081F7
:1021E00071818281938120E030E04AE755E40E94CA
:1021F0007003DC01CB01F80180839183A283B38358
:10220000FE01E35BFF4F608171818281938120E059
:1022100030E040E85FE30E94CA04882344F4FE01F2
:10222000E55BFF4F81E090E09183808364C0FE0115
:10223000E35BFF4F608171818281938120E03FEFFA
:102240004FE757E40E946A0418160CF043C0FE01E1
:10225000EF5AFF4F608171818281938120E030E0ED
:1022600040E251E40E947003DC01CB018E01055B6A
:102270001F4FBC01CD010E949A01DC01CB01F80186
:10228000918380831FC0FE01E75BFF4F80E991E0EF
:1022900091838083FE01E75BFF4F808191810197ED
:1022A000F1F7FE01E75BFF4F91838083DE01A55BC1
:1022B000BF4FFE01E55BFF4F808191810197119631
:1022C0009C938E93FE01E55BFF4F80819181009787
:1022D000D1F627C08E01055B1F4FFE01E35BFF4F68
:1022E00060817181828193810E949A01DC01CB011E
:1022F000F80191838083DE01A95BBF4FFE01E55B9E
:10230000FF4F808191818D939C93FE01E95BFF4F8C
:10231000808191810197F1F7FE01E95BFF4F918385
:102320008083DE01AD59BF4FFE01EC59FF4F808124
:1023300082958F708C93FE01ED59FF4F8081982F0D
:10234000917082E064E0492F0E94D50CFE01ED59A6
:10235000FF4F80818695982F917082E065E0492F2C
:102360000E94D50CFE01ED59FF4F80818695869520
:10237000982F917082E066E0492F0E94D50CFE01F3
:10238000ED59FF4F8081869586958695982F91709F
:1023900082E067E0492F0E94D50CFE01ED5BFF4F04
:1023A00080E090E0A0E8BFE380839183A283B383C1
:1023B0008E01015C1F4FFE01ED5BFF4F608171815B
:1023C0008281938120E030E04AE755E40E94700367
:1023D000DC01CB01F80180839183A283B383FE01EA
:1023E000FF96608171818281938120E030E040E836
:1023F0005FE30E94CA0488232CF481E090E09EAF42
:102400008DAF46C0FE01FF9660817181828193810C
:1024100020E03FEF4FE757E40E946A04181664F586
:10242000FE01ED5BFF4F608171818281938120E02D
:1024300030E040E251E40E947003DC01CB01BC01BA
:10244000CD010E949A01DC01CB019EAF8DAF0FC080
:1024500080E991E09CAF8BAF8BAD9CAD0197F1F71C
:102460009CAF8BAF8DAD9EAD01979EAF8DAF8DAD07
:102470009EAD009769F716C0FE01FF9660817181DD
:10248000828193810E949A01DC01CB019EAF8DAFC6
:102490008DAD9EAD9AAF89AF89AD9AAD0197F1F739
:1024A0009AAF89AF82E062E040E00E94D50C80E004
:1024B00090E0A0E8BFE38DAB9EABAFABB8AF6DA92A
:1024C0007EA98FA998AD20E030E04AE755E40E944C
:1024D0007003DC01CB0189AB9AABABABBCAB69A998
:1024E0007AA98BA99CA920E030E040E85FE30E9434
:1024F000CA0488232CF481E090E098AB8FA73FC0FA
:1025000069A97AA98BA99CA920E03FEF4FE757E47E
:102510000E946A0418164CF56DA97EA98FA998AD82
:1025200020E030E040E251E40E947003DC01CB0186
:10253000BC01CD010E949A01DC01CB0198AB8FA7B1
:102540000FC080E991E09EA78DA78DA59EA501975C
:10255000F1F79EA78DA78FA598A9019798AB8FA794
:102560008FA598A9009769F714C069A97AA98BA9C2
:102570009CA90E949A01DC01CB0198AB8FA78FA583
:1025800098A99CA78BA78BA59CA50197F1F79CA761
:102590008BA782E062E041E00E94D50C80E090E0F1
:1025A000A0E8BFE38FA398A7A9A7BAA76FA178A5B2
:1025B00089A59AA520E030E04AE755E40E9470031F
:1025C000DC01CB018BA39CA3ADA3BEA36BA17CA11B
:1025D0008DA19EA120E030E040E85FE30E94CA04A4
:1025E00088232CF481E090E09AA389A33FC06BA1DB
:1025F0007CA18DA19EA120E03FEF4FE757E40E9410
:102600006A0418164CF56FA178A589A59AA520E053
:1026100030E040E251E40E947003DC01CB01BC01D8
:10262000CD010E949A01DC01CB019AA389A30FC0BE
:1026300080E991E098A38F8F8F8D98A10197F1F792
:1026400098A38F8F89A19AA101979AA389A389A1A1
:102650009AA1009769F714C06BA17CA18DA19EA1DE
:102660000E949A01DC01CB019AA389A389A19AA1B6
:102670009E8F8D8F8D8D9E8D0197F1F79E8F8D8F03
:10268000DE01AD59BF4FFE01EC59FF4F80818F70C5
:102690008C93FE01ED59FF4F8081982F917082E05D
:1026A00064E0492F0E94D50CFE01ED59FF4F808157
:1026B0008695982F917082E065E0492F0E94D50C95
:1026C000FE01ED59FF4F808186958695982F917078
:1026D00082E066E0492F0E94D50CFE01ED59FF4FC4
:1026E0008081869586958695982F917082E067E027
:1026F000492F0E94D50C80E090E0A0E8BFE3898FCD
:102700009A8FAB8FBC8F698D7A8D8B8D9C8D20E0DD
:1027100030E04AE755E40E947003DC01CB018D8B69
:102720009E8BAF8BB88F6D897E898F89988D20E0C5
:1027300030E040E85FE30E94CA0488232CF481E083
:1027400090E09C8B8B8B3FC06D897E898F89988DA3
:1027500020E03FEF4FE757E40E946A0418164CF55B
:10276000698D7A8D8B8D9C8D20E030E040E251E4C4
:102770000E947003DC01CB01BC01CD010E949A01D3
:10278000DC01CB019C8B8B8B0FC080E991E09A8B95
:10279000898B89899A890197F1F79A8B898B8B8923
:1027A0009C8901979C8B8B8B8B899C89009769F7FF
:1027B00014C06D897E898F89988D0E949A01DC01F1
:1027C000CB019C8B8B8B8B899C89988B8F878F857A
:1027D00098890197F1F7988B8F8782E062E040E05B
:1027E0000E94D50C80E090E0A0E8BFE38B879C8737
:1027F000AD87BE876B857C858D859E8520E030E02A
:102800004AE755E40E947003DC01CB018F8398876F
:10281000A987BA876F81788589859A8520E030E01D
:1028200040E85FE30E94CA0488232CF481E090E032
:102830009E838D833FC06F81788589859A8520E04E
:102840003FEF4FE757E40E946A0418164CF56B857A
:102850007C858D859E8520E030E040E251E40E9439
:102860007003DC01CB01BC01CD010E949A01DC01A7
:10287000CB019E838D830FC080E991E09C838B8385
:102880008B819C810197F1F79C838B838D819E8145
:1028900001979E838D838D819E81009769F714C077
:1028A0006F81788589859A850E949A01DC01CB0128
:1028B0009E838D838D819E819A83898389819A816C
:1028C0000197F1F79A838983CC59DF4F0FB6F894BB
:1028D000DEBF0FBECDBFCF91DF911F910F91089545
:1028E0000F931F93DF93CF93CDB7DEB7C456D0407D
:1028F0000FB6F894DEBF0FBECDBFFE01EC59FF4FFF
:10290000808382E060E041E00E94D50C82E061E0DB
:1029100040E00E94D50CFE01E15AFF4F80E090E0BC
:10292000A0E8BFE380839183A283B3838E01055A1D
:102930001F4FFE01E15AFF4F6081718182819381B7
:1029400020E030E04AE755E40E947003DC01CB014F
:10295000F80180839183A283B383FE01E55AFF4F80
:10296000608171818281938120E030E040E85FE303
:102970000E94CA04882344F4FE01E75AFF4F81E015
:1029800090E09183808364C0FE01E55AFF4F60812F
:1029900071818281938120E03FEF4FE757E40E94ED
:1029A0006A0418160CF043C0FE01E15AFF4F608123
:1029B00071818281938120E030E040E251E40E9405
:1029C0007003DC01CB018E01075A1F4FBC01CD0102
:1029D0000E949A01DC01CB01F801918380831FC022
:1029E000FE01E95AFF4F80E991E091838083FE0167
:1029F000E95AFF4F808191810197F1F7FE01E95A71
:102A0000FF4F91838083DE01A75ABF4FFE01E75A33
:102A1000FF4F80819181019711969C938E93FE01C7
:102A2000E75AFF4F808191810097D1F627C08E0130
:102A3000075A1F4FFE01E55AFF4F60817181828165
:102A400093810E949A01DC01CB01F801918380837C
:102A5000DE01AB5ABF4FFE01E75AFF4F80819181E3
:102A60008D939C93FE01EB5AFF4F808191810197DA
:102A7000F1F7FE01EB5AFF4F9183808382E062E021
:102A800041E00E94D50CFE01EF5AFF4F80E090E03C
:102A9000A0E8BFE380839183A283B3838E01035BAD
:102AA0001F4FFE01EF5AFF4F608171818281938138
:102AB00020E030E04AE755E40E947003DC01CB01DE
:102AC000F80180839183A283B383FE01E35BFF4F10
:102AD000608171818281938120E030E040E85FE392
:102AE0000E94CA04882344F4FE01E55BFF4F81E0A5
:102AF00090E09183808364C0FE01E35BFF4F6081BF
:102B000071818281938120E03FEF4FE757E40E947B
:102B10006A0418160CF043C0FE01EF5AFF4F6081A3
:102B200071818281938120E030E040E251E40E9493
:102B30007003DC01CB018E01055B1F4FBC01CD0191
:102B40000E949A01DC01CB01F801918380831FC0B0
:102B5000FE01E75BFF4F80E991E091838083FE01F6
:102B6000E75BFF4F808191810197F1F7FE01E75B01
:102B7000FF4F91838083DE01A55BBF4FFE01E55BC4
:102B8000FF4F80819181019711969C938E93FE0156
:102B9000E55BFF4F808191810097D1F627C08E01C0
:102BA000055B1F4FFE01E35BFF4F608171818281F6
:102BB00093810E949A01DC01CB01F801918380830B
:102BC000DE01A95BBF4FFE01E55BFF4F8081918174
:102BD0008D939C93FE01E95BFF4F8081918101976A
:102BE000F1F7FE01E95BFF4F91838083DE01AD5970
:102BF000BF4FFE01EC59FF4F808182958F708C93FF
:102C0000FE01ED59FF4F8081982F917082E064E0C2
:102C1000492F0E94D50CFE01ED59FF4F808186950A
:102C2000982F917082E065E0492F0E94D50CFE013B
:102C3000ED59FF4F808186958695982F917082E09F
:102C400066E0492F0E94D50CFE01ED59FF4F8081AF
:102C5000869586958695982F917082E067E0492F3A
:102C60000E94D50CFE01ED5BFF4F80E090E0A0E8F4
:102C7000BFE380839183A283B3838E01015C1F4FE6
:102C8000FE01ED5BFF4F608171818281938120E0C5
:102C900030E04AE755E40E947003DC01CB01F80103
:102CA00080839183A283B383FE01FF96608171814B
:102CB0008281938120E030E040E85FE30E94CA0413
:102CC00088232CF481E090E09EAF8DAF46C0FE01DA
:102CD000FF96608171818281938120E03FEF4FE711
:102CE00057E40E946A04181664F5FE01ED5BFF4F7D
:102CF000608171818281938120E030E040E251E483
:102D00000E947003DC01CB01BC01CD010E949A013D
:102D1000DC01CB019EAF8DAF0FC080E991E09CAF8D
:102D20008BAF8BAD9CAD0197F1F79CAF8BAF8DADA9
:102D30009EAD01979EAF8DAF8DAD9EAD009769F7AB
:102D400016C0FE01FF9660817181828193810E948D
:102D50009A01DC01CB019EAF8DAF8DAD9EAD9AAFD8
:102D600089AF89AD9AAD0197F1F79AAF89AF82E04B
:102D700062E040E00E94D50C80E090E0A0E8BFE374
:102D80008DAB9EABAFABB8AF6DA97EA98FA998AD47
:102D900020E030E04AE755E40E947003DC01CB01FB
:102DA00089AB9AABABABBCAB69A97AA98BA99CA93F
:102DB00020E030E040E85FE30E94CA0488232CF45E
:102DC00081E090E098AB8FA73FC069A97AA98BA951
:102DD0009CA920E03FEF4FE757E40E946A041816D1
:102DE0004CF56DA97EA98FA998AD20E030E040E2B6
:102DF00051E40E947003DC01CB01BC01CD010E94B3
:102E00009A01DC01CB0198AB8FA70FC080E991E05C
:102E10009EA78DA78DA59EA50197F1F79EA78DA7CB
:102E20008FA598A9019798AB8FA78FA598A9009710
:102E300069F714C069A97AA98BA99CA90E949A0173
:102E4000DC01CB0198AB8FA78FA598A99CA78BA776
:102E50008BA59CA50197F1F79CA78BA782E062E068
:102E600041E00E94D50C80E090E0A0E8BFE38FA392
:102E700098A7A9A7BAA76FA178A589A59AA520E0C8
:102E800030E04AE755E40E947003DC01CB018BA3DC
:102E90009CA3ADA3BEA36BA17CA18DA19EA120E0AC
:102EA00030E040E85FE30E94CA0488232CF481E00C
:102EB00090E09AA389A33FC06BA17CA18DA19EA1A4
:102EC00020E03FEF4FE757E40E946A0418164CF5E4
:102ED0006FA178A589A59AA520E030E040E251E4F1
:102EE0000E947003DC01CB01BC01CD010E949A015C
:102EF000DC01CB019AA389A30FC080E991E098A3DC
:102F00008F8F8F8D98A10197F1F798A38F8F89A14B
:102F10009AA101979AA389A389A19AA1009769F719
:102F200014C06BA17CA18DA19EA10E949A01DC011D
:102F3000CB019AA389A389A19AA19E8F8D8F8D8D94
:102F40009E8D0197F1F79E8F8D8FDE01AD59BF4F9A
:102F5000FE01EC59FF4F80818F708C93FE01ED597B
:102F6000FF4F8081982F917082E064E0492F0E948A
:102F7000D50CFE01ED59FF4F80818695982F9170F9
:102F800082E065E0492F0E94D50CFE01ED59FF4F0C
:102F9000808186958695982F917082E066E0492F12
:102FA0000E94D50CFE01ED59FF4F808186958695D4
:102FB0008695982F917082E067E0492F0E94D50C8A
:102FC00080E090E0A0E8BFE3898F9A8FAB8FBC8F41
:102FD000698D7A8D8B8D9C8D20E030E04AE755E439
:102FE0000E947003DC01CB018D8B9E8BAF8BB88F61
:102FF0006D897E898F89988D20E030E040E85FE31D
:103000000E94CA0488232CF481E090E09C8B8B8B77
:103010003FC06D897E898F89988D20E03FEF4FE713
:1030200057E40E946A0418164CF5698D7A8D8B8DD1
:103030009C8D20E030E040E251E40E947003DC010E
:10304000CB01BC01CD010E949A01DC01CB019C8B1C
:103050008B8B0FC080E991E09A8B898B89899A8943
:103060000197F1F79A8B898B8B899C8901979C8BAF
:103070008B8B8B899C89009769F714C06D897E8939
:103080008F89988D0E949A01DC01CB019C8B8B8BE0
:103090008B899C89988B8F878F8598890197F1F709
:1030A000988B8F8782E062E040E00E94D50C80E040
:1030B00090E0A0E8BFE38B879C87AD87BE876B85D8
:1030C0007C858D859E8520E030E04AE755E40E94AE
:1030D0007003DC01CB018F839887A987BA876F8142
:1030E000788589859A8520E030E040E85FE30E949A
:1030F000CA0488232CF481E090E09E838D833FC036
:103100006F81788589859A8520E03FEF4FE757E406
:103110000E946A0418164CF56B857C858D859E850A
:1031200020E030E040E251E40E947003DC01CB017A
:10313000BC01CD010E949A01DC01CB019E838D83ED
:103140000FC080E991E09C838B838B819C810197E8
:10315000F1F79C838B838D819E8101979E838D8364
:103160008D819E81009769F714C06F81788589856C
:103170009A850E949A01DC01CB019E838D838D810B
:103180009E819A83898389819A810197F1F79A8335
:10319000898380917D008F5F80937D0080917D0089
:1031A000803169F480917C008F5F80937C00109265
:1031B0007D0080917C00803111F410927C00CC590C
:1031C000DF4F0FB6F894DEBF0FBECDBFCF91DF91BA
:1031D0001F910F910895DF93CF9300D00F92CDB739
:1031E000DEB79B838A8319820EC08981282F30E045
:1031F0008A819B81FC01E20FF31F80810E94701481
:1032000089818F5F89838981282F30E08A819B8122
:10321000FC01E20FF31F8081882339F70F900F9094
:103220000F90CF91DF910895DF93CF9300D000D01E
:103230000F92CDB7DEB78A836B838A81282F30E067
:103240003D832C838C819D81009731F02C813D81C1
:103250002130310549F011C08B8189838B818093A6
:103260007D0010927C0009C08B81805C89838B81FA
:1032700080937D0081E080937C00898180680E943A
:103280000B100F900F900F900F900F90CF91DF9138
:103290000895DF93CF9300D000D0CDB7DEB79A83E7
:1032A00089836B834C838B816C810E941419898183
:1032B0009A810E94EB180F900F900F900F90CF9172
:1032C000DF910895DF93CF93CDB7DEB710927D00E5
:1032D00010927C0081E00E940B10CF91DF91089545
:1032E000DF93CF93CDB7DEB780917D008F3089F427
:1032F00080917C00882369F410927D0081E08093A6
:103300007C0080917C0090917D00692F0E941419AF
:103310001CC080917D008F3081F480917C008130D1
:1033200061F410927D0010927C0080917C0090915D
:103330007D00692F0E94141908C084E10E940B10BF
:1033400080917D008F5F80937D00CF91DF91089504
:10335000DF93CF93CDB7DEB780917D00882391F4C2
:1033600080917C00882371F48FE080937D0081E060
:1033700080937C0080917C0090917D00692F0E9459
:1033800014191DC080917D00882389F480917C00F0
:10339000813069F48FE080937D0010927C008091F1
:1033A0007C0090917D00692F0E94141908C080E173
:1033B0000E940B1080917D00815080937D00CF9101
:1033C000DF910895DF93CF93CDB7DEB78CE10E94F4
:1033D0000B10CF91DF910895DF93CF93CDB7DEB778
:1033E00088E10E940B10CF91DF910895DF93CF9376
:1033F00000D000D0CDB7DEB79B838A836C838C81ED
:10340000882F90E00896880F991F880F991F880FC2
:10341000991F0E940B1019820EC08981282F30E05D
:103420008A819B81FC01E20FF31F80810E9470144E
:1034300089818F5F89838981883078F30F900F901D
:103440000F900F90CF91DF910895DF93CF930F925C
:10345000CDB7DEB7898389810E9470140F90CF9118
:10346000DF910895DF93CF9300D00F92CDB7DEB7F1
:1034700089836A834B838A816B810E9414198981B5
:103480000E9470140F900F900F90CF91DF910895CC
:10349000DF93CF93CDB7DEB765970FB6F894DEBF55
:1034A0000FBECDBF6A8B7B8B8C8B9D8B8A899B8952
:1034B0009E012F5F3F4FB9014AE050E00E94E81E95
:1034C000CE0101960E94EB1865960FB6F894DEBF08
:1034D0000FBECDBFCF91DF910895DF93CF9300D082
:1034E00000D0CDB7DEB79C838B831A82198283E02C
:1034F00067E00E943A0C8130D1F383E090E00E94B3
:10350000990989819A819C01220F331F8B819C81AB
:10351000DC01A20FB31FECE4F0E0808191818D9378
:103520009C9383E067E00E943A0C882381F48981B0
:103530009A819C01220F331F8B819C81FC01E20F39
:10354000F31F808191812EE480329207D0F283E0D4
:1035500090E00E94990989819A8101969C01220F2D
:10356000331F8B819C81DC01A20FB31FECE4F0E0E0
:10357000808191818D939C9383E067E00E943A0C57
:10358000813089F489819A8101969C01220F331F31
:103590008B819C81FC01E20FF31F808191814EE4BD
:1035A00080329407C0F289819A8102969A83898336
:1035B00021E030E089819A81A901481B590BCA0199
:1035C000880F991F22273327281B390B8B819C8159
:1035D000FC01E20FF31F808191815EE48032950748
:1035E00090F489819A8102979C01220F331F8B816D
:1035F0009C81FC01E20FF31F808191812EE48032D7
:10360000920708F47ACF0F900F900F900F90CF9100
:10361000DF910895DF93CF93CDB7DEB783E067E006
:1036200040E00E944C0A0E945D090E94B909CF91B6
:10363000DF910895AF92BF92CF92DF92EF92FF9207
:103640000F931F93DF93CF93CDB7DEB7CE50D1400A
:103650000FB6F894DEBF0FBECDBFFE01E55FFE4F93
:1036600091838083FE01E35FFE4F7183608383E07B
:1036700090E09A838983FE01ED5FFE4F10821182F4
:10368000128213821482158216821782CE0103964B
:103690000E946D1A8B819C8127E28031920708F08D
:1036A00052C18B819C8120E2813D920708F44BC17D
:1036B0008D819E8122E18C35920708F044C18D8175
:1036C0009E812EE0893D920708F43DC1FE01E55F31
:1036D000FE4F0190F081E02D8EE48083FE01E55FD6
:1036E000FE4F80819181FC01319685E48083FE014B
:1036F000E55FFE4F80819181FC01329683E48083F7
:10370000FE01E55FFE4F80819181FC0133961082BE
:10371000BFC089819A819C01220F331FCE0101967F
:10372000820F931FFC01329680819181853691052D
:1037300008F443C089819A819C01220F331FCE0176
:103740000196820F931FFC0132968081918122E0C5
:103750008C3B920790F5FE01ED5FFE4FA080B1809B
:10376000C280D380E480F580068117812A2D3B2D0D
:103770004C2D5D2D6E2D7F2D802F912F01E00E940D
:10378000C800A22EB32EC42ED52EE62EF72E082F5B
:10379000192F2A2D3B2D4C2D5D2D6E2D7F2D802F29
:1037A000912FFE01ED5FFE4F2083318342835383CF
:1037B000648375838683978366C089819A819C011F
:1037C000220F331FCE010196820F931FFC01329608
:1037D0008081918124E0813B920708F45FC0898158
:1037E0009A819C01220F331FCE010196820F931FF5
:1037F000FC0132968081918127E08830920708F0A1
:103800004DC0FE01ED5FFE4FA080B180C280D3802D
:10381000E480F580068117812A2D3B2D4C2D5D2DEE
:103820006E2D7F2D802F912F01E00E94C800A22EC7
:10383000B32EC42ED52EE62EF72E082F192F2A2DA3
:103840003B2D4C2D5D2D6E2D7F2D802F912FAA2489
:10385000A394A22ABB24B32ACC24C42ADD24D52ACB
:10386000EE24E62AFF24F72A082F0060192F1060A3
:10387000FE01ED5FFE4FA082B182C282D382E4825C
:10388000F5820683178389819A8102969A838983B8
:1038900089819A818138910508F43BCFFE01ED5F63
:1038A000FE4F2081318142815381648175818681FF
:1038B0009781E22FE32BE42BE52BE62BE72BE82B7C
:1038C000E92BEE23E1F420917E0030917F004091BE
:1038D00080005091810060918200709183008091FE
:1038E000840090918500FE01ED5FFE4F20833183BF
:1038F000428353836483758386839783A6C1FE01C5
:10390000ED5FFE4F20813181428153816481758159
:103910008681978120937E0030937F0040938000C2
:1039200050938100609382007093830080938400A1
:1039300090938500FE01E35FFE4F0190F081E02D42
:1039400081E0808382C18B819C8127E28031920754
:10395000B0F58B819C8120E2813D920780F18D81C1
:103960009E812AE08832920750F58D819E8126E063
:103970008134920720F120917E0030917F004091A8
:10398000800050918100609182007091830080914D
:10399000840090918500FE01ED5FFE4F208331830E
:1039A000428353836483758386839783FE01E35F39
:1039B000FE4F0190F081E02D82E0808346C18B8133
:1039C0009C812FE0803A920708F034C18B819C8162
:1039D0002BE0893B920708F42DC18D819E8127E061
:1039E000803D920708F026C18D819E8123E0893EAB
:1039F000920708F41FC1FE01E55FFE4F0190F081C0
:103A0000E02D80E58083FE01E55FFE4F808191819E
:103A1000FC01319681E48083FE01E55FFE4F8081E9
:103A20009181FC0132968EE48083FE01E55FFE4FBA
:103A300080819181FC01339681E48083FE01E55F02
:103A4000FE4F80819181FC01349683E58083FE01E5
:103A5000E55FFE4F80819181FC0135968FE4808384
:103A6000FE01E55FFE4F80819181FC0136968EE478
:103A70008083FE01E55FFE4F80819181FC013796D6
:103A800089E48083FE01E55FFE4F80819181FC0126
:103A9000389683E48083FE01E55FFE4F808191814B
:103AA000FC0139961082BFC089819A819C01220F46
:103AB000331FCE010196820F931FFC013296808145
:103AC00091818F31910508F443C089819A819C01CD
:103AD000220F331FCE010196820F931FFC013296F5
:103AE0008081918122E08637920790F5FE01ED5F9B
:103AF000FE4FA080B180C280D380E480F580068133
:103B000017812A2D3B2D4C2D5D2D6E2D7F2D802F65
:103B1000912F01E00E94C800A22EB32EC42ED52EF4
:103B2000E62EF72E082F192F2A2D3B2D4C2D5D2D1B
:103B30006E2D7F2D802F912FFE01ED5FFE4F208394
:103B4000318342835383648375838683978366C0FE
:103B500089819A819C01220F331FCE010196820F29
:103B6000931FFC0132968081918123E08538920772
:103B700008F46BC089819A819C01220F331FCE010A
:103B80000196820F931FFC0132968081918125E07E
:103B90008C3D920708F059C0FE01ED5FFE4FA080FA
:103BA000B180C280D380E480F580068117812A2D00
:103BB0003B2D4C2D5D2D6E2D7F2D802F912F01E003
:103BC0000E94C800A22EB32EC42ED52EE62EF72EAC
:103BD000082F192F2A2D3B2D4C2D5D2D6E2D7F2D5D
:103BE000802F912FAA24A394A22ABB24B32ACC24E9
:103BF000C42ADD24D52AEE24E62AFF24F72A082F3A
:103C00000060192F1060FE01ED5FFE4FA082B182AF
:103C1000C282D382E482F5820683178389819A81E6
:103C200002969A83898389819A818138910508F463
:103C30003BCF0BC0FE01ED5FFE4F1082118212825E
:103C400013821482158216821782FE01ED5FFE4FE9
:103C50002081318142815381648175818681978180
:103C6000A22EB32EC42ED52EE62EF72E082F192FF6
:103C70002A2D3B2D4C2D5D2D6E2D7F2D802F912FCC
:103C8000C25FDE4F0FB6F894DEBF0FBECDBFCF913F
:103C9000DF911F910F91FF90EF90DF90CF90BF9039
:103CA000AF900895AF92BF92CF92DF92EF92FF92C2
:103CB0000F931F93DF93CF93CDB7DEB70E94E60932
:103CC0000E940A1B0E94D50F8EE890E026EB30E0A0
:103CD000B9010E941A1BA22EB32EC42ED52EE62E99
:103CE000F72E082F192FA0928600B0928700C0925D
:103CF0008800D0928900E0928A00F0928B000093B5
:103D00008C0010938D00A0908600B0908700C0902A
:103D10008800D0908900E0908A00F0908B0000919C
:103D20008C0010918D00E8E9F0E02A2D3B2D4C2D00
:103D30005D2D6E2D7F2D802F912F8F010E94F40617
:103D400080E060E00E94141988E990E00E94EB187E
:103D500081E060E00E9414198EE890E00E94EB1868
:103D6000B3CF2F923F924F925F926F927F928F923A
:103D70009F92AF92BF92CF92DF92EF92FF920F93FA
:103D80001F93CF93DF93CDB7DEB7CA1BDB0B0FB604
:103D9000F894DEBF0FBECDBF09942A8839884888C1
:103DA0005F846E847D848C849B84AA84B984C88457
:103DB000DF80EE80FD800C811B81AA81B981CE0F4E
:103DC000D11D0FB6F894DEBF0FBECDBFED01089533
:103DD000FB019F01E8944230C4F04532B4F44A300C
:103DE00029F497FB1EF4909581959F4F642F7727B8
:103DF0000E94191F805D8A330CF0895D8193CB018D
:103E00000097A1F716F45DE251931082C9010C945A
:103E1000091FDC01FC01672F71917723E1F73297CD
:103E200004C07C916D9370836291AE17BF07C8F395
:103E30000895AA1BBB1B51E107C0AA1FBB1FA617F1
:103E4000B70710F0A61BB70B881F991F5A95A9F743
:0E3E500080959095BC01CD010895F894FFCFA8
:103E5E000000000000000000020008FF00000A1F22
:0C3E6E001F0E04000E1111111F1F1F0079
:00000001FF
